{"abi":[{"type":"constructor","inputs":[],"stateMutability":"nonpayable"},{"type":"receive","stateMutability":"payable"},{"type":"function","name":"adminOwner","inputs":[],"outputs":[{"name":"","type":"address","internalType":"address"}],"stateMutability":"view"},{"type":"function","name":"adminWithdraw","inputs":[{"name":"bank","type":"address","internalType":"contract IBank"}],"outputs":[],"stateMutability":"nonpayable"},{"type":"event","name":"AdminWithdraw","inputs":[{"name":"bank","type":"address","indexed":true,"internalType":"address"},{"name":"amount","type":"uint256","indexed":false,"internalType":"uint256"}],"anonymous":false}],"bytecode":{"object":"0x608060405234801561000f575f80fd5b50335f806101000a81548173ffffffffffffffffffffffffffffffffffffffff021916908373ffffffffffffffffffffffffffffffffffffffff1602179055506106178061005c5f395ff3fe60806040526004361061002c575f3560e01c80631417b94614610037578063a28835b61461006157610033565b3661003357005b5f80fd5b348015610042575f80fd5b5061004b610089565b6040516100589190610344565b60405180910390f35b34801561006c575f80fd5b506100876004803603810190610082919061039c565b6100ac565b005b5f8054906101000a900473ffffffffffffffffffffffffffffffffffffffff1681565b5f8054906101000a900473ffffffffffffffffffffffffffffffffffffffff1673ffffffffffffffffffffffffffffffffffffffff163373ffffffffffffffffffffffffffffffffffffffff1614610139576040517f08c379a000000000000000000000000000000000000000000000000000000000815260040161013090610421565b60405180910390fd5b5f4790508173ffffffffffffffffffffffffffffffffffffffff16633ccfd60b6040518163ffffffff1660e01b81526004015f604051808303815f87803b158015610182575f80fd5b505af1158015610194573d5f803e3d5ffd5b505050505f81476101a59190610475565b90505f81116101e9576040517f08c379a00000000000000000000000000000000000000000000000000000000081526004016101e0906104f2565b60405180910390fd5b5f805f9054906101000a900473ffffffffffffffffffffffffffffffffffffffff1673ffffffffffffffffffffffffffffffffffffffff168260405161022e9061053d565b5f6040518083038185875af1925050503d805f8114610268576040519150601f19603f3d011682016040523d82523d5f602084013e61026d565b606091505b50509050806102b1576040517f08c379a00000000000000000000000000000000000000000000000000000000081526004016102a89061059b565b60405180910390fd5b8373ffffffffffffffffffffffffffffffffffffffff167fba443e8671971c36cdeb74f87321041daff421230cbc5e36cb835269ed1d8b7e836040516102f791906105c8565b60405180910390a250505050565b5f73ffffffffffffffffffffffffffffffffffffffff82169050919050565b5f61032e82610305565b9050919050565b61033e81610324565b82525050565b5f6020820190506103575f830184610335565b92915050565b5f80fd5b5f61036b82610324565b9050919050565b61037b81610361565b8114610385575f80fd5b50565b5f8135905061039681610372565b92915050565b5f602082840312156103b1576103b061035d565b5b5f6103be84828501610388565b91505092915050565b5f82825260208201905092915050565b7f6e6f742061646d696e4f776e65720000000000000000000000000000000000005f82015250565b5f61040b600e836103c7565b9150610416826103d7565b602082019050919050565b5f6020820190508181035f830152610438816103ff565b9050919050565b5f819050919050565b7f4e487b71000000000000000000000000000000000000000000000000000000005f52601160045260245ffd5b5f61047f8261043f565b915061048a8361043f565b92508282039050818111156104a2576104a1610448565b5b92915050565b7f6e6f7468696e67207265636569766564000000000000000000000000000000005f82015250565b5f6104dc6010836103c7565b91506104e7826104a8565b602082019050919050565b5f6020820190508181035f830152610509816104d0565b9050919050565b5f81905092915050565b50565b5f6105285f83610510565b91506105338261051a565b5f82019050919050565b5f6105478261051d565b9150819050919050565b7f5472616e7366657220746f2061646d696e4f776e6572206661696c65640000005f82015250565b5f610585601d836103c7565b915061059082610551565b602082019050919050565b5f6020820190508181035f8301526105b281610579565b9050919050565b6105c28161043f565b82525050565b5f6020820190506105db5f8301846105b9565b9291505056fea2646970667358221220242c7342a9e9b65b5a8256cb1680bdc33e60f1c05799be317c783195721cdfd264736f6c63430008140033","linkReferences":{}},"methodIdentifiers":{"adminOwner()":"1417b946","adminWithdraw(address)":"a28835b6"},"id":1}