{"abi":[{"type":"receive","stateMutability":"payable"},{"type":"function","name":"balances","inputs":[{"name":"","type":"address","internalType":"address"}],"outputs":[{"name":"","type":"uint256","internalType":"uint256"}],"stateMutability":"view"},{"type":"function","name":"deposit","inputs":[],"outputs":[],"stateMutability":"payable"},{"type":"function","name":"getDepositorBalance","inputs":[{"name":"depositor","type":"address","internalType":"address"}],"outputs":[{"name":"","type":"uint256","internalType":"uint256"}],"stateMutability":"view"},{"type":"function","name":"getTopDepositAmounts","inputs":[],"outputs":[{"name":"","type":"uint256[3]","internalType":"uint256[3]"}],"stateMutability":"view"},{"type":"function","name":"getTopDepositors","inputs":[],"outputs":[{"name":"","type":"address[3]","internalType":"address[3]"}],"stateMutability":"view"},{"type":"function","name":"getTotalBalance","inputs":[],"outputs":[{"name":"","type":"uint256","internalType":"uint256"}],"stateMutability":"view"},{"type":"function","name":"owner","inputs":[],"outputs":[{"name":"","type":"address","internalType":"address"}],"stateMutability":"view"},{"type":"function","name":"topDepositors","inputs":[{"name":"","type":"uint256","internalType":"uint256"}],"outputs":[{"name":"","type":"address","internalType":"address"}],"stateMutability":"view"},{"type":"function","name":"transferOwnership","inputs":[{"name":"newOwner","type":"address","internalType":"address"}],"outputs":[],"stateMutability":"nonpayable"},{"type":"function","name":"withdraw","inputs":[],"outputs":[],"stateMutability":"nonpayable"},{"type":"event","name":"Deposit","inputs":[{"name":"depositor","type":"address","indexed":true,"internalType":"address"},{"name":"amount","type":"uint256","indexed":false,"internalType":"uint256"}],"anonymous":false},{"type":"event","name":"Withdraw","inputs":[{"name":"admin","type":"address","indexed":true,"internalType":"address"},{"name":"amount","type":"uint256","indexed":false,"internalType":"uint256"}],"anonymous":false}],"bytecode":{"object":"0x608060405234801561000f575f80fd5b503360045f6101000a81548173ffffffffffffffffffffffffffffffffffffffff021916908373ffffffffffffffffffffffffffffffffffffffff1602179055506112ba8061005d5f395ff3fe608060405260043610610094575f3560e01c80638da5cb5b116100585780638da5cb5b14610189578063b79215d6146101b3578063d0e30db0146101ef578063d68deea8146101f9578063f2fde38b14610223576100a3565b806312b58349146100a757806327e235e3146100d1578063308610781461010d5780633ccfd60b1461014957806381454f711461015f576100a3565b366100a3576100a161024b565b005b5f80fd5b3480156100b2575f80fd5b506100bb61033f565b6040516100c89190610c62565b60405180910390f35b3480156100dc575f80fd5b506100f760048036038101906100f29190610cd9565b610346565b6040516101049190610c62565b60405180910390f35b348015610118575f80fd5b50610133600480360381019061012e9190610d2e565b61035a565b6040516101409190610d68565b60405180910390f35b348015610154575f80fd5b5061015d61038e565b005b34801561016a575f80fd5b5061017361059f565b6040516101809190610e26565b60405180910390f35b348015610194575f80fd5b5061019d61061f565b6040516101aa9190610d68565b60405180910390f35b3480156101be575f80fd5b506101d960048036038101906101d49190610cd9565b610644565b6040516101e69190610c62565b60405180910390f35b6101f761024b565b005b348015610204575f80fd5b5061020d610689565b60405161021a9190610ee4565b60405180910390f35b34801561022e575f80fd5b5061024960048036038101906102449190610cd9565b61074c565b005b66038d7ea4c680003411610294576040517f08c379a000000000000000000000000000000000000000000000000000000000815260040161028b90610f57565b60405180910390fd5b345f803373ffffffffffffffffffffffffffffffffffffffff1673ffffffffffffffffffffffffffffffffffffffff1681526020019081526020015f205f8282546102df9190610fa2565b925050819055506102ef3361088c565b3373ffffffffffffffffffffffffffffffffffffffff167fe1fffcc4923d04b559f4d29a8bfc6cda04eb5b0d3c460751c2402c5c5cc9109c346040516103359190610c62565b60405180910390a2565b5f47905090565b5f602052805f5260405f205f915090505481565b60018160038110610369575f80fd5b015f915054906101000a900473ffffffffffffffffffffffffffffffffffffffff1681565b60045f9054906101000a900473ffffffffffffffffffffffffffffffffffffffff1673ffffffffffffffffffffffffffffffffffffffff163373ffffffffffffffffffffffffffffffffffffffff161461041d576040517f08c379a00000000000000000000000000000000000000000000000000000000081526004016104149061101f565b60405180910390fd5b5f4790505f8111610463576040517f08c379a000000000000000000000000000000000000000000000000000000000815260040161045a90611087565b60405180910390fd5b5f60045f9054906101000a900473ffffffffffffffffffffffffffffffffffffffff1673ffffffffffffffffffffffffffffffffffffffff16826040516104a9906110d2565b5f6040518083038185875af1925050503d805f81146104e3576040519150601f19603f3d011682016040523d82523d5f602084013e6104e8565b606091505b505090508061052c576040517f08c379a000000000000000000000000000000000000000000000000000000000815260040161052390611130565b60405180910390fd5b60045f9054906101000a900473ffffffffffffffffffffffffffffffffffffffff1673ffffffffffffffffffffffffffffffffffffffff167f884edad9ce6fa2440d8a54cc123490eb96d2768479d49ff9c7366125a9424364836040516105939190610c62565b60405180910390a25050565b6105a7610c06565b6001600380602002604051908101604052809291908260038015610615576020028201915b815f9054906101000a900473ffffffffffffffffffffffffffffffffffffffff1673ffffffffffffffffffffffffffffffffffffffff16815260200190600101908083116105cc575b5050505050905090565b60045f9054906101000a900473ffffffffffffffffffffffffffffffffffffffff1681565b5f805f8373ffffffffffffffffffffffffffffffffffffffff1673ffffffffffffffffffffffffffffffffffffffff1681526020019081526020015f20549050919050565b610691610c28565b610699610c28565b5f5b6003811015610744575f80600183600381106106ba576106b961114e565b5b015f9054906101000a900473ffffffffffffffffffffffffffffffffffffffff1673ffffffffffffffffffffffffffffffffffffffff1673ffffffffffffffffffffffffffffffffffffffff1681526020019081526020015f20548282600381106107285761072761114e565b5b602002018181525050808061073c9061117b565b91505061069b565b508091505090565b60045f9054906101000a900473ffffffffffffffffffffffffffffffffffffffff1673ffffffffffffffffffffffffffffffffffffffff163373ffffffffffffffffffffffffffffffffffffffff16146107db576040517f08c379a00000000000000000000000000000000000000000000000000000000081526004016107d29061101f565b60405180910390fd5b5f73ffffffffffffffffffffffffffffffffffffffff168173ffffffffffffffffffffffffffffffffffffffff1603610849576040517f08c379a00000000000000000000000000000000000000000000000000000000081526004016108409061120c565b60405180910390fd5b8060045f6101000a81548173ffffffffffffffffffffffffffffffffffffffff021916908373ffffffffffffffffffffffffffffffffffffffff16021790555050565b5f805f8373ffffffffffffffffffffffffffffffffffffffff1673ffffffffffffffffffffffffffffffffffffffff1681526020019081526020015f205490505f5b6003811015610a5e578273ffffffffffffffffffffffffffffffffffffffff16600182600381106109025761090161114e565b5b015f9054906101000a900473ffffffffffffffffffffffffffffffffffffffff1673ffffffffffffffffffffffffffffffffffffffff1603610a4b575f8190505b60028110156109f1576001808261095a9190610fa2565b6003811061096b5761096a61114e565b5b015f9054906101000a900473ffffffffffffffffffffffffffffffffffffffff16600182600381106109a05761099f61114e565b5b015f6101000a81548173ffffffffffffffffffffffffffffffffffffffff021916908373ffffffffffffffffffffffffffffffffffffffff16021790555080806109e99061117b565b915050610943565b505f6001600260038110610a0857610a0761114e565b5b015f6101000a81548173ffffffffffffffffffffffffffffffffffffffff021916908373ffffffffffffffffffffffffffffffffffffffff160217905550610a5e565b8080610a569061117b565b9150506108ce565b505f5b6003811015610c01575f8060018360038110610a8057610a7f61114e565b5b015f9054906101000a900473ffffffffffffffffffffffffffffffffffffffff1673ffffffffffffffffffffffffffffffffffffffff1673ffffffffffffffffffffffffffffffffffffffff1681526020019081526020015f2054821115610bee575f600290505b81811115610b955760018082610afe919061122a565b60038110610b0f57610b0e61114e565b5b015f9054906101000a900473ffffffffffffffffffffffffffffffffffffffff1660018260038110610b4457610b4361114e565b5b015f6101000a81548173ffffffffffffffffffffffffffffffffffffffff021916908373ffffffffffffffffffffffffffffffffffffffff1602179055508080610b8d9061125d565b915050610ae8565b508260018260038110610bab57610baa61114e565b5b015f6101000a81548173ffffffffffffffffffffffffffffffffffffffff021916908373ffffffffffffffffffffffffffffffffffffffff160217905550610c01565b8080610bf99061117b565b915050610a61565b505050565b6040518060600160405280600390602082028036833780820191505090505090565b6040518060600160405280600390602082028036833780820191505090505090565b5f819050919050565b610c5c81610c4a565b82525050565b5f602082019050610c755f830184610c53565b92915050565b5f80fd5b5f73ffffffffffffffffffffffffffffffffffffffff82169050919050565b5f610ca882610c7f565b9050919050565b610cb881610c9e565b8114610cc2575f80fd5b50565b5f81359050610cd381610caf565b92915050565b5f60208284031215610cee57610ced610c7b565b5b5f610cfb84828501610cc5565b91505092915050565b610d0d81610c4a565b8114610d17575f80fd5b50565b5f81359050610d2881610d04565b92915050565b5f60208284031215610d4357610d42610c7b565b5b5f610d5084828501610d1a565b91505092915050565b610d6281610c9e565b82525050565b5f602082019050610d7b5f830184610d59565b92915050565b5f60039050919050565b5f81905092915050565b5f819050919050565b610da781610c9e565b82525050565b5f610db88383610d9e565b60208301905092915050565b5f602082019050919050565b610dd981610d81565b610de38184610d8b565b9250610dee82610d95565b805f5b83811015610e1e578151610e058782610dad565b9650610e1083610dc4565b925050600181019050610df1565b505050505050565b5f606082019050610e395f830184610dd0565b92915050565b5f60039050919050565b5f81905092915050565b5f819050919050565b610e6581610c4a565b82525050565b5f610e768383610e5c565b60208301905092915050565b5f602082019050919050565b610e9781610e3f565b610ea18184610e49565b9250610eac82610e53565b805f5b83811015610edc578151610ec38782610e6b565b9650610ece83610e82565b925050600181019050610eaf565b505050505050565b5f606082019050610ef75f830184610e8e565b92915050565b5f82825260208201905092915050565b7f6465706f736974206d757374206265203e20302e3030312065746865722100005f82015250565b5f610f41601e83610efd565b9150610f4c82610f0d565b602082019050919050565b5f6020820190508181035f830152610f6e81610f35565b9050919050565b7f4e487b71000000000000000000000000000000000000000000000000000000005f52601160045260245ffd5b5f610fac82610c4a565b9150610fb783610c4a565b9250828201905080821115610fcf57610fce610f75565b5b92915050565b7f4e6f74206f776e657200000000000000000000000000000000000000000000005f82015250565b5f611009600983610efd565b915061101482610fd5565b602082019050919050565b5f6020820190508181035f83015261103681610ffd565b9050919050565b7f4e6f2062616c616e636520746f207769746864726177000000000000000000005f82015250565b5f611071601683610efd565b915061107c8261103d565b602082019050919050565b5f6020820190508181035f83015261109e81611065565b9050919050565b5f81905092915050565b50565b5f6110bd5f836110a5565b91506110c8826110af565b5f82019050919050565b5f6110dc826110b2565b9150819050919050565b7f5769746864726177206661696c656400000000000000000000000000000000005f82015250565b5f61111a600f83610efd565b9150611125826110e6565b602082019050919050565b5f6020820190508181035f8301526111478161110e565b9050919050565b7f4e487b71000000000000000000000000000000000000000000000000000000005f52603260045260245ffd5b5f61118582610c4a565b91507fffffffffffffffffffffffffffffffffffffffffffffffffffffffffffffffff82036111b7576111b6610f75565b5b600182019050919050565b7f6164647265737320697320696e76616c696400000000000000000000000000005f82015250565b5f6111f6601283610efd565b9150611201826111c2565b602082019050919050565b5f6020820190508181035f830152611223816111ea565b9050919050565b5f61123482610c4a565b915061123f83610c4a565b925082820390508181111561125757611256610f75565b5b92915050565b5f61126782610c4a565b91505f820361127957611278610f75565b5b60018203905091905056fea2646970667358221220742cb771fe112bb710c51e57951cbcff6c3b5623d1be9ab54f440aec5767ca5a64736f6c63430008140033","linkReferences":{}},"methodIdentifiers":{"balances(address)":"27e235e3","deposit()":"d0e30db0","getDepositorBalance(address)":"b79215d6","getTopDepositAmounts()":"d68deea8","getTopDepositors()":"81454f71","getTotalBalance()":"12b58349","owner()":"8da5cb5b","topDepositors(uint256)":"30861078","transferOwnership(address)":"f2fde38b","withdraw()":"3ccfd60b"},"id":1}