{"abi":[{"type":"constructor","inputs":[],"stateMutability":"nonpayable"},{"type":"receive","stateMutability":"payable"},{"type":"function","name":"balances","inputs":[{"name":"","type":"address","internalType":"address"}],"outputs":[{"name":"","type":"uint256","internalType":"uint256"}],"stateMutability":"view"},{"type":"function","name":"deposit","inputs":[],"outputs":[],"stateMutability":"payable"},{"type":"function","name":"getDepositorBalance","inputs":[{"name":"depositor","type":"address","internalType":"address"}],"outputs":[{"name":"","type":"uint256","internalType":"uint256"}],"stateMutability":"view"},{"type":"function","name":"getTopDepositAmounts","inputs":[],"outputs":[{"name":"","type":"uint256[3]","internalType":"uint256[3]"}],"stateMutability":"view"},{"type":"function","name":"getTopDepositors","inputs":[],"outputs":[{"name":"","type":"address[3]","internalType":"address[3]"}],"stateMutability":"view"},{"type":"function","name":"getTotalBalance","inputs":[],"outputs":[{"name":"","type":"uint256","internalType":"uint256"}],"stateMutability":"view"},{"type":"function","name":"owner","inputs":[],"outputs":[{"name":"","type":"address","internalType":"address"}],"stateMutability":"view"},{"type":"function","name":"topDepositors","inputs":[{"name":"","type":"uint256","internalType":"uint256"}],"outputs":[{"name":"","type":"address","internalType":"address"}],"stateMutability":"view"},{"type":"function","name":"withdraw","inputs":[],"outputs":[],"stateMutability":"nonpayable"},{"type":"event","name":"Deposit","inputs":[{"name":"depositor","type":"address","indexed":true,"internalType":"address"},{"name":"amount","type":"uint256","indexed":false,"internalType":"uint256"}],"anonymous":false},{"type":"event","name":"Withdraw","inputs":[{"name":"admin","type":"address","indexed":true,"internalType":"address"},{"name":"amount","type":"uint256","indexed":false,"internalType":"uint256"}],"anonymous":false}],"bytecode":{"object":"0x608060405234801561000f575f80fd5b503360045f6101000a81548173ffffffffffffffffffffffffffffffffffffffff021916908373ffffffffffffffffffffffffffffffffffffffff1602179055506110d88061005d5f395ff3fe608060405260043610610089575f3560e01c806381454f711161005857806381454f71146101545780638da5cb5b1461017e578063b79215d6146101a8578063d0e30db0146101e4578063d68deea8146101ee57610098565b806312b583491461009c57806327e235e3146100c657806330861078146101025780633ccfd60b1461013e57610098565b3661009857610096610218565b005b5f80fd5b3480156100a7575f80fd5b506100b0610305565b6040516100bd9190610ae8565b60405180910390f35b3480156100d1575f80fd5b506100ec60048036038101906100e79190610b5f565b61030c565b6040516100f99190610ae8565b60405180910390f35b34801561010d575f80fd5b5061012860048036038101906101239190610bb4565b610320565b6040516101359190610bee565b60405180910390f35b348015610149575f80fd5b50610152610354565b005b34801561015f575f80fd5b50610168610565565b6040516101759190610cac565b60405180910390f35b348015610189575f80fd5b506101926105e5565b60405161019f9190610bee565b60405180910390f35b3480156101b3575f80fd5b506101ce60048036038101906101c99190610b5f565b61060a565b6040516101db9190610ae8565b60405180910390f35b6101ec610218565b005b3480156101f9575f80fd5b5061020261064f565b60405161020f9190610d6a565b60405180910390f35b5f341161025a576040517f08c379a000000000000000000000000000000000000000000000000000000000815260040161025190610ddd565b60405180910390fd5b345f803373ffffffffffffffffffffffffffffffffffffffff1673ffffffffffffffffffffffffffffffffffffffff1681526020019081526020015f205f8282546102a59190610e28565b925050819055506102b533610712565b3373ffffffffffffffffffffffffffffffffffffffff167fe1fffcc4923d04b559f4d29a8bfc6cda04eb5b0d3c460751c2402c5c5cc9109c346040516102fb9190610ae8565b60405180910390a2565b5f47905090565b5f602052805f5260405f205f915090505481565b6001816003811061032f575f80fd5b015f915054906101000a900473ffffffffffffffffffffffffffffffffffffffff1681565b60045f9054906101000a900473ffffffffffffffffffffffffffffffffffffffff1673ffffffffffffffffffffffffffffffffffffffff163373ffffffffffffffffffffffffffffffffffffffff16146103e3576040517f08c379a00000000000000000000000000000000000000000000000000000000081526004016103da90610ea5565b60405180910390fd5b5f4790505f8111610429576040517f08c379a000000000000000000000000000000000000000000000000000000000815260040161042090610f0d565b60405180910390fd5b5f60045f9054906101000a900473ffffffffffffffffffffffffffffffffffffffff1673ffffffffffffffffffffffffffffffffffffffff168260405161046f90610f58565b5f6040518083038185875af1925050503d805f81146104a9576040519150601f19603f3d011682016040523d82523d5f602084013e6104ae565b606091505b50509050806104f2576040517f08c379a00000000000000000000000000000000000000000000000000000000081526004016104e990610fb6565b60405180910390fd5b60045f9054906101000a900473ffffffffffffffffffffffffffffffffffffffff1673ffffffffffffffffffffffffffffffffffffffff167f884edad9ce6fa2440d8a54cc123490eb96d2768479d49ff9c7366125a9424364836040516105599190610ae8565b60405180910390a25050565b61056d610a8c565b60016003806020026040519081016040528092919082600380156105db576020028201915b815f9054906101000a900473ffffffffffffffffffffffffffffffffffffffff1673ffffffffffffffffffffffffffffffffffffffff1681526020019060010190808311610592575b5050505050905090565b60045f9054906101000a900473ffffffffffffffffffffffffffffffffffffffff1681565b5f805f8373ffffffffffffffffffffffffffffffffffffffff1673ffffffffffffffffffffffffffffffffffffffff1681526020019081526020015f20549050919050565b610657610aae565b61065f610aae565b5f5b600381101561070a575f80600183600381106106805761067f610fd4565b5b015f9054906101000a900473ffffffffffffffffffffffffffffffffffffffff1673ffffffffffffffffffffffffffffffffffffffff1673ffffffffffffffffffffffffffffffffffffffff1681526020019081526020015f20548282600381106106ee576106ed610fd4565b5b602002018181525050808061070290611001565b915050610661565b508091505090565b5f805f8373ffffffffffffffffffffffffffffffffffffffff1673ffffffffffffffffffffffffffffffffffffffff1681526020019081526020015f205490505f5b60038110156108e4578273ffffffffffffffffffffffffffffffffffffffff166001826003811061078857610787610fd4565b5b015f9054906101000a900473ffffffffffffffffffffffffffffffffffffffff1673ffffffffffffffffffffffffffffffffffffffff16036108d1575f8190505b600281101561087757600180826107e09190610e28565b600381106107f1576107f0610fd4565b5b015f9054906101000a900473ffffffffffffffffffffffffffffffffffffffff166001826003811061082657610825610fd4565b5b015f6101000a81548173ffffffffffffffffffffffffffffffffffffffff021916908373ffffffffffffffffffffffffffffffffffffffff160217905550808061086f90611001565b9150506107c9565b505f600160026003811061088e5761088d610fd4565b5b015f6101000a81548173ffffffffffffffffffffffffffffffffffffffff021916908373ffffffffffffffffffffffffffffffffffffffff1602179055506108e4565b80806108dc90611001565b915050610754565b505f5b6003811015610a87575f806001836003811061090657610905610fd4565b5b015f9054906101000a900473ffffffffffffffffffffffffffffffffffffffff1673ffffffffffffffffffffffffffffffffffffffff1673ffffffffffffffffffffffffffffffffffffffff1681526020019081526020015f2054821115610a74575f600290505b81811115610a1b57600180826109849190611048565b6003811061099557610994610fd4565b5b015f9054906101000a900473ffffffffffffffffffffffffffffffffffffffff16600182600381106109ca576109c9610fd4565b5b015f6101000a81548173ffffffffffffffffffffffffffffffffffffffff021916908373ffffffffffffffffffffffffffffffffffffffff1602179055508080610a139061107b565b91505061096e565b508260018260038110610a3157610a30610fd4565b5b015f6101000a81548173ffffffffffffffffffffffffffffffffffffffff021916908373ffffffffffffffffffffffffffffffffffffffff160217905550610a87565b8080610a7f90611001565b9150506108e7565b505050565b6040518060600160405280600390602082028036833780820191505090505090565b6040518060600160405280600390602082028036833780820191505090505090565b5f819050919050565b610ae281610ad0565b82525050565b5f602082019050610afb5f830184610ad9565b92915050565b5f80fd5b5f73ffffffffffffffffffffffffffffffffffffffff82169050919050565b5f610b2e82610b05565b9050919050565b610b3e81610b24565b8114610b48575f80fd5b50565b5f81359050610b5981610b35565b92915050565b5f60208284031215610b7457610b73610b01565b5b5f610b8184828501610b4b565b91505092915050565b610b9381610ad0565b8114610b9d575f80fd5b50565b5f81359050610bae81610b8a565b92915050565b5f60208284031215610bc957610bc8610b01565b5b5f610bd684828501610ba0565b91505092915050565b610be881610b24565b82525050565b5f602082019050610c015f830184610bdf565b92915050565b5f60039050919050565b5f81905092915050565b5f819050919050565b610c2d81610b24565b82525050565b5f610c3e8383610c24565b60208301905092915050565b5f602082019050919050565b610c5f81610c07565b610c698184610c11565b9250610c7482610c1b565b805f5b83811015610ca4578151610c8b8782610c33565b9650610c9683610c4a565b925050600181019050610c77565b505050505050565b5f606082019050610cbf5f830184610c56565b92915050565b5f60039050919050565b5f81905092915050565b5f819050919050565b610ceb81610ad0565b82525050565b5f610cfc8383610ce2565b60208301905092915050565b5f602082019050919050565b610d1d81610cc5565b610d278184610ccf565b9250610d3282610cd9565b805f5b83811015610d62578151610d498782610cf1565b9650610d5483610d08565b925050600181019050610d35565b505050505050565b5f606082019050610d7d5f830184610d14565b92915050565b5f82825260208201905092915050565b7f416d6f756e74206d757374206265203e203000000000000000000000000000005f82015250565b5f610dc7601283610d83565b9150610dd282610d93565b602082019050919050565b5f6020820190508181035f830152610df481610dbb565b9050919050565b7f4e487b71000000000000000000000000000000000000000000000000000000005f52601160045260245ffd5b5f610e3282610ad0565b9150610e3d83610ad0565b9250828201905080821115610e5557610e54610dfb565b5b92915050565b7f4e6f74206f776e657200000000000000000000000000000000000000000000005f82015250565b5f610e8f600983610d83565b9150610e9a82610e5b565b602082019050919050565b5f6020820190508181035f830152610ebc81610e83565b9050919050565b7f4e6f2062616c616e636520746f207769746864726177000000000000000000005f82015250565b5f610ef7601683610d83565b9150610f0282610ec3565b602082019050919050565b5f6020820190508181035f830152610f2481610eeb565b9050919050565b5f81905092915050565b50565b5f610f435f83610f2b565b9150610f4e82610f35565b5f82019050919050565b5f610f6282610f38565b9150819050919050565b7f5769746864726177206661696c656400000000000000000000000000000000005f82015250565b5f610fa0600f83610d83565b9150610fab82610f6c565b602082019050919050565b5f6020820190508181035f830152610fcd81610f94565b9050919050565b7f4e487b71000000000000000000000000000000000000000000000000000000005f52603260045260245ffd5b5f61100b82610ad0565b91507fffffffffffffffffffffffffffffffffffffffffffffffffffffffffffffffff820361103d5761103c610dfb565b5b600182019050919050565b5f61105282610ad0565b915061105d83610ad0565b925082820390508181111561107557611074610dfb565b5b92915050565b5f61108582610ad0565b91505f820361109757611096610dfb565b5b60018203905091905056fea2646970667358221220dd6f9689b326d05890bc2dafc760f766e8ddb099375971dc6356b9a3c174710b64736f6c63430008140033","linkReferences":{}},"methodIdentifiers":{"balances(address)":"27e235e3","deposit()":"d0e30db0","getDepositorBalance(address)":"b79215d6","getTopDepositAmounts()":"d68deea8","getTopDepositors()":"81454f71","getTotalBalance()":"12b58349","owner()":"8da5cb5b","topDepositors(uint256)":"30861078","withdraw()":"3ccfd60b"},"id":0}